:020000040800F2
:1000000000000A208917000869030008710300082E
:10001000790300088103000889030008E517000838
:100020000000000000000000000000009103000834
:100030009F03000800000000AD030008BB03000898
:10004000E5170008E5170008E5170008E5170008A0
:10005000E5170008E5170008E5170008E517000890
:10006000E5170008E5170008E5170008E517000880
:10007000E5170008E5170008E5170008E517000870
:10008000E5170008E5170008E5170008E517000860
:10009000E5170008E5170008E5170008E517000850
:1000A000E5170008E5170008E5170008E517000840
:1000B000E5170008E5170008E5170008E517000830
:1000C000E5170008E5170008E5170008E517000820
:1000D00000000000E5170008E5170008E517000814
:1000E000E5170008E5170008E5170008E517000800
:1000F000E5170008E5170008E5170008E5170008F0
:10010000E5170008E5170008E5170008E5170008DF
:10011000E5170008E5170008E5170008E5170008CF
:10012000E5170008E5170008E5170008E5170008BF
:10013000E5170008E5170008E5170008E5170008AF
:10014000E5170008E5170008E5170008E51700089F
:10015000E5170008E5170008E5170008E51700088F
:10016000E5170008E5170008E5170008E51700087F
:10017000E5170008E5170008E5170008E51700086F
:10018000E5170008E5170008E5170008E51700085F
:10019000E5170008E5170008E5170008E51700084F
:1001A000E5170008E5170008E5170008E51700083F
:1001B000E5170008E5170008E5170008E51700082F
:1001C000E5170008E5170008E5170008E51700081F
:1001D000E5170008E517000800000000E517000813
:1001E000E5170008E5170008000000000000000007
:1001F000E51700080000000000000000E5170008F7
:10020000E5170008E5170008E517000800000000E2
:1002100000000000E517000800000000E5170008D6
:10022000E5170008E5170008E5170008E5170008BE
:10023000E5170008E5170008E5170008E5170008AE
:0C024000E5170008E5170008E5170008A6
:10024C0010B5054C237833B9044B13B10448AFF304
:10025C0000800123237010BD0C0000200000000062
:10026C004018000808B5034B1BB103490348AFF312
:10027C00008008BD0000000010000020401800089D
:10028C0080B500AF01F0BCF900F002F800BFFDE74B
:10029C0080B59CB000AF07F1200350220021184616
:1002AC0001F09BFA07F1080300221A605A609A6069
:1002BC00DA601A615A61244B1B69234A23F030031C
:1002CC001361214B1B6903F030037B607B6800BF1B
:1002DC001D4B5B6903F00803082BF9D102233B6229
:1002EC000123FB6208233B6340237B630023BB6435
:1002FC0007F12003184600F0E7F80346002B01D065
:10030C0000F026F81F23BB600023FB6000233B6139
:10031C0000237B610023BB610023FB6107F1080311
:10032C000121184600F008FD0346002B01D000F017
:10033C000FF8064B1B68054A23F03003136000BF0F
:10034C007037BD4680BD00BF00080244002002404B
:10035C0080B400AF72B600BF00BFFDE780B400AF41
:10036C0000BFFDE780B400AF00BFFDE780B400AF75
:10037C0000BFFDE780B400AF00BFFDE780B400AF65
:10038C0000BFFDE780B400AF00BFBD465DF8047B45
:10039C00704780B400AF00BFBD465DF8047B70476A
:1003AC0080B400AF00BFBD465DF8047B704780B5DC
:1003BC0000AF01F0C3F900BF80BD80B400AF00BF37
:1003CC00BD465DF8047B704780B483B000AF374BFB
:1003DC00D3F88830354A43F47003C2F88830344B74
:1003EC001B6803F01803324A43F001031360304BCF
:1003FC000022DA612E4B00221A622D4B1A682C490E
:10040C002C4B13400B602A4B00229A62284B002283
:10041C00DA62274B00221A63254B274A5A63244B76
:10042C0000229A63224B244ADA63214B00221A647D
:10043C001F4B214A5A641E4B00229A641C4B1B68AA
:10044C001B4A23F480231360194B00221A65174BA7
:10045C004FF000629A60194B9B6903F060437B601C
:10046C007B68B3F1604F03D07B68B3F1404F17D179
:10047C00124BDB6903F00103002B05D00F4B104A24
:10048C00DA600E4B0F4ADA600C4BDB690B4A43F017
:10049C000203D361094BDB69084A43F00103D361C2
:1004AC0000BF0C37BD465DF8047B704700ED00E0E3
:1004BC00000C0244FBEAE2EA800201010020024047
:1004CC003B2A19087F6E5D4C80B588B000AF786010
:1004DC007B68002B02D1012300F028BC944BDB6914
:1004EC0003F01803FB61924B9B6A03F00303BB619F
:1004FC007B681B6803F01003002B5BD0FB69082B97
:10050C0005D0FB69182B14D1BB69022B11D17B6868
:10051C00DB69002B02D1012300F008BC844B9B69E2
:10052C0023F47C127B681B6A1B04814913438B6187
:10053C0040E07B68DB69002B23D07D4B1B687C4A39
:10054C0043F48073136001F00DF9786108E001F059
:10055C0009F902467B69D31A022B01D90323E5E37F
:10056C00734B1B6803F40073002BF0D0704B9B692A
:10057C0023F47C127B681B6A1B046D4913438B614B
:10058C0018E06B4B1B686A4A23F48073136001F00C
:10059C00E9F8786108E001F0E5F802467B69D31AC6
:1005AC00022B01D90323C1E3614B1B6803F40073D5
:1005BC00002BF0D17B681B6803F00103002B00F0CB
:1005CC00A080FB69102B05D0FB69182B09D1BB69E6
:1005DC00032B06D17B685B68002B40F092800123D3
:1005EC00A4E37B685B68B3F5803F06D1504B1B6876
:1005FC004F4A43F48033136058E07B685B68002BF0
:10060C0012D14B4B1B684A4A23F480331360484B7E
:10061C001B68474A23F480131360454B1B68444AFC
:10062C0023F48023136041E07B685B68B3F5A02F53
:10063C0012D13F4B1B683E4A43F4802313603C4B62
:10064C001B683B4A23F480131360394B1B68384AF0
:10065C0043F48033136029E07B685B68B3F5A81F13
:10066C0012D1334B1B68324A43F480231360304B56
:10067C001B682F4A43F4801313602D4B1B682C4AC4
:10068C0043F48033136011E0294B1B68284A23F490
:10069C0080331360264B1B68254A23F48023136098
:1006AC00234B1B68224A23F4801313607B685B681E
:1006BC00002B13D001F056F8786108E001F052F8E5
:1006CC0002467B69D31A642B01D903232EE3184B02
:1006DC001B6803F40033002BF0D012E001F042F859
:1006EC00786108E001F03EF802467B69D31A642B6E
:1006FC0001D903231AE30E4B1B6803F40033002BC0
:10070C00F0D17B681B6803F00203002B00F09A8089
:10071C00FB69002B05D0FB69182B49D1BB69012B58
:10072C0046D17B68DB68002B04D10123FEE200BFBD
:10073C00000C0244FB69002B1CD19A4B1B6803F084
:10074C0018027B681B699A4214D0964B1B6823F0E5
:10075C0018027B681B69934913430B6000F0D0FDB2
:10076C00914B1B68184600F073FF0346002B01D019
:10077C000123DBE200F0F6FF786108E000F0F2FF05
:10078C0002467B69D31A022B01D90323CEE2854B97
:10079C001B6803F00203002BF0D0824B1B6923F47F
:1007AC00FE027B685B691B047E4913430B6149E0C5
:1007BC007B68DB68002B2CD07A4B1B6823F018026B
:1007CC007B681B69774913430B60764B1B68754A32
:1007DC0043F00103136000F0C5FF786108E000F0FE
:1007EC00C1FF02467B69D31A022B01D903239DE278
:1007FC006C4B1B6803F00203002BF0D0694B1B6998
:10080C0023F4FE027B685B691B04664913430B618E
:10081C0018E0644B1B68634A23F00103136000F07B
:10082C00A1FF786108E000F09DFF02467B69D31AB6
:10083C00022B01D9032379E25A4B1B6803F0020304
:10084C00002BF0D17B681B6803F00803002B3CD015
:10085C007B689B69002B1CD0524BD3F8F030514A6B
:10086C0043F08063C2F8F03000F07CFF786108E060
:10087C0000F078FF02467B69D31A022B01D90323BF
:10088C0054E2484BD3F8F03003F00063002BEFD068
:10089C001BE0444BD3F8F030424A23F08063C2F89B
:1008AC00F03000F05FFF786108E000F05BFF02467B
:1008BC007B69D31A022B01D9032337E2394BD3F8C6
:1008CC00F03003F00063002BEFD17B681B6803F062
:1008DC000403002B00F0D280344B5B6A03F001035D
:1008EC00002B18D1314B5B6A304A43F00103536241
:1008FC0000F038FF786108E000F034FF02467B69B5
:10090C00D31A022B01D9032310E2284B5B6A03F0A4
:10091C000103002BF0D07B689B68012B08D1214B85
:10092C00D3F8F0301F4A43F00103C2F8F03074E002
:10093C007B689B68002B18D11A4BD3F8F030194AFE
:10094C0023F00103C2F8F030164BD3F8F030154AFF
:10095C0023F08003C2F8F030124BD3F8F030114A78
:10096C0023F00403C2F8F03057E07B689B68052B3A
:10097C001ED10C4BD3F8F0300A4A43F00403C2F8F2
:10098C00F030084BD3F8F030064A23F08003C2F85D
:10099C00F030044BD3F8F030024A43F00103C2F8B4
:1009AC00F0303AE0000C024404000020000802443D
:1009BC007B689B68852B18D1A24BD3F8F030A14AE9
:1009CC0043F00403C2F8F0309E4BD3F8F0309D4A4C
:1009DC0043F08003C2F8F0309A4BD3F8F030994AC8
:1009EC0043F00103C2F8F03017E0964BD3F8F03027
:1009FC00944A23F00103C2F8F030924BD3F8F03054
:100A0C00904A23F00403C2F8F0308E4BD3F8F03048
:100A1C008C4A23F08003C2F8F0307B689B68002B73
:100A2C0016D000F09FFE78610AE000F09BFE0246B3
:100A3C007B69D31A41F28832934201D9032375E1C1
:100A4C00804BD3F8F03003F00203002BEDD015E00F
:100A5C0000F088FE78610AE000F084FE02467B69B3
:100A6C00D31A41F28832934201D903235EE1754BCC
:100A7C00D3F8F03003F00203002BEDD17B681B6838
:100A8C0003F02003002B36D07B685B6A002B19D057
:100A9C006C4B1B686B4A43F48053136000F062FE8E
:100AAC00786108E000F05EFE02467B69D31A022BE7
:100ABC0001D903233AE1634B1B6803F40053002B69
:100ACC00F0D018E05F4B1B685E4A23F48053136030
:100ADC0000F048FE786108E000F044FE02467B69B5
:100AEC00D31A022B01D9032320E1564B1B6803F4C4
:100AFC000053002BF0D17B689B6A002B00F0158112
:100B0C00FB69182B00F0AF807B689B6A022B40F0CE
:100B1C0086804C4B1B684B4A23F08073136000F0AB
:100B2C0021FE786108E000F01DFE02467B69D31AB5
:100B3C00022B01D90323F9E0424B1B6803F000732D
:100B4C00002BF0D13F4B9B6A23F47C5323F003031F
:100B5C007A68D16A7A68126B12020A4339491343D4
:100B6C008B627B685B6B013BC3F308027B689B6BFE
:100B7C00013B5B029BB21A437B68DB6B013B1B04A2
:100B8C0003F4FE031A437B681B6C013B1B0603F04A
:100B9C00FE432C4913434B632A4B9B6A294A23F08F
:100BAC00100393627B68DB6C264ADB009363254B56
:100BBC009B6A244A43F010039362224B9B6A23F0F6
:100BCC000C027B685B6C1F4913438B621D4B9B6A49
:100BDC0023F020027B689B6C1A4913438B62194BE0
:100BEC009B6A184A43F480339362164B1B68154A70
:100BFC0043F08073136000F0B5FD786108E000F0FD
:100C0C00B1FD02467B69D31A022B01D903238DE077
:100C1C000C4B1B6803F00073002BF0D085E0094BE4
:100C2C001B68084A23F08073136000F09BFD786109
:100C3C000AE000F097FD02467B69D31A022B03D918
:100C4C00032373E0000C02443A4B1B6803F000735F
:100C5C00002BEED1374B9B6A364A23F4E02323F06A
:100C6C000303936261E0334B9B6A3B61314B5B6BDB
:100C7C00FB607B689B6A012B31D03B6903F003025C
:100C8C007B68DB6A9A422AD13B691B0A03F03F025C
:100C9C007B681B6B9A4222D1FB68C3F308027B680A
:100CAC005B6B013B9A421AD1FB685B0A03F07F0233
:100CBC007B689B6B013B9A4211D1FB681B0C03F0C8
:100CCC007F027B68DB6B013B9A4208D1FB681B0EF1
:100CDC0003F07F027B681B6C013B9A4201D001231D
:100CEC0024E0144B9B6BDB08C3F30C027B68DB6CBE
:100CFC009A421AD00F4B9B6A0E4A23F01003936250
:100D0C0000F030FD786100BF00F02CFD02467B69DD
:100D1C009342F9D07B68DB6C064ADB009363054B8E
:100D2C009B6A044A43F01003936200231846203751
:100D3C00BD4680BD000C024480B584B000AF786025
:100D4C0039607B68002B01D101239EE1834B1B682A
:100D5C0003F00F033A689A4210D9804B1B6823F0BA
:100D6C000F027E493B6813430B607C4B1B6803F0FE
:100D7C000F033A689A4201D0012386E17B681B6815
:100D8C0003F01003002B12D07B685A69744B1B6A5A
:100D9C001B0A03F070039A4209D9714B1B6A23F4A6
:100DAC00E0427B685B691B026D4913430B627B68F5
:100DBC001B6803F00803002B12D07B681A69684B80
:100DCC001B6A1B0903F070039A4209D9644B1B6A16
:100DDC0023F4E0627B681B691B01614913430B62BE
:100DEC007B681B6803F00403002B10D07B68DA6867
:100DFC005B4B1B6A03F070039A4208D9584B1B6A71
:100E0C0023F070027B68DB68554913430B627B68E7
:100E1C001B6803F00203002B10D07B689A68504BC0
:100E2C001B6A03F00F039A4208D94D4B1B6A23F03F
:100E3C000F027B689B684A4913430B627B681B68F3
:100E4C0003F00103002B00F093807B685B68032B9D
:100E5C0007D1434B1B6803F00073002B21D10123F6
:100E6C0013E17B685B68022B07D13D4B1B6803F4D5
:100E7C000033002B15D1012307E17B685B68012B44
:100E8C0007D1374B1B6803F40073002B09D10123E6
:100E9C00FBE0334B1B6803F00203002B01D1012351
:100EAC00F3E02F4BDB6923F003027B685B682C4972
:100EBC001343CB6100F056FCF8607B685B68032B36
:100ECC0012D10AE000F04EFC0246FB68D31A41F244
:100EDC008832934201D90323D7E0214BDB6903F01D
:100EEC001803182BEED143E07B685B68022B12D100
:100EFC000AE000F037FC0246FB68D31A41F2883254
:100F0C00934201D90323C0E0154BDB6903F01803AE
:100F1C00102BEED12CE07B685B68012B22D10AE010
:100F2C0000F020FC0246FB68D31A41F2883293424F
:100F3C0001D90323A9E00A4BDB6903F01803082B42
:100F4C00EED115E000F00EFC0246FB68D31A41F21C
:100F5C008832934206D9032397E000BF0020024059
:100F6C00000C02444B4BDB6903F01803002BE9D156
:100F7C007B681B6803F00203002B10D07B689A6817
:100F8C00444B1B6A03F00F039A4208D2414B1B6A75
:100F9C0023F00F027B689B683E4913430B623E4B68
:100FAC001B6803F00F033A689A4210D23A4B1B6845
:100FBC0023F00F0238493B6813430B60364B1B6818
:100FCC0003F00F033A689A4201D001235DE07B687D
:100FDC001B6803F00403002B10D07B68DA682D4BE0
:100FEC001B6A03F070039A4208D22A4B1B6A23F047
:100FFC0070027B68DB68274913430B627B681B68B4
:10100C0003F00803002B12D07B681A69214B1B6A72
:10101C001B0903F070039A4209D21E4B1B6A23F47E
:10102C00E0627B681B691B011A4913430B627B68E6
:10103C001B6803F01003002B12D07B685A69154B08
:10104C001B6A1B0A03F070039A4209D2114B1B6AEC
:10105C0023F4E0427B685B691B020E4913430B626D
:10106C0000F022F802460B4B1B6A03F00F030B49EE
:10107C00CB5C22FA03F30A4A13600A4B1B6818462E
:10108C0000F0E6FA0346FB72FB7A18461037BD46B1
:10109C0080BD00BF000C024400200240581800081C
:1010AC00000000200400002080B489B000AF8C4BFD
:1010BC00DB6903F01803082B02D18A4BFB6107E1B3
:1010CC00874BDB6903F01803002B12D1844B1B6890
:1010DC0003F02003002B09D0814B1B68DB0803F0C5
:1010EC000303814A22FA03F3FB61F1E07E4BFB61BF
:1010FC00EEE07B4BDB6903F01803102B02D17B4B2A
:10110C00FB61E5E0764BDB6903F01803182B40F02C
:10111C00DD80734B9B6A03F003037B61704B9B6A0E
:10112C001B0A03F03F033B616D4B9B6A1B0903F0E9
:10113C000103FB606A4B9B6BDB08C3F30C03FA687F
:10114C0002FB03F307EE903AF8EE677AC7ED027AEA
:10115C003B69002B00F0B7807B69012B03D07B69C6
:10116C00032B56D077E05E4B1B6803F02003002B5B
:10117C002DD05B4B1B68DB0803F003035A4A22FAA1
:10118C0003F37B607B6807EE903AF8EE676A3B6985
:10119C0007EE903AF8EE677A86EEA77A504B5B6BC7
:1011AC00C3F3080307EE903AF8EE676A97ED026A0C
:1011BC00DFED4F5AC6EE257A76EEA77AF7EE006A87
:1011CC0077EEA67A67EE277AC7ED067A65E03B697B
:1011DC0007EE903AF8EE677ADFED466A86EEA77A6C
:1011EC003F4B5B6BC3F3080307EE903AF8EE676A6C
:1011FC0097ED026ADFED3E5AC6EE257A76EEA77AB7
:10120C00F7EE006A77EEA67A67EE277AC7ED067AD4
:10121C0043E03B6907EE903AF8EE677ADFED366A09
:10122C0086EEA77A2E4B5B6BC3F3080307EE903A5E
:10123C00F8EE676A97ED026ADFED2D5AC6EE257A55
:10124C0076EEA77AF7EE006A77EEA67A67EE277A43
:10125C00C7ED067A21E03B6907EE903AF8EE677A23
:10126C00DFED266A86EEA77A1D4B5B6BC3F3080392
:10127C0007EE903AF8EE676A97ED026ADFED1C5ABA
:10128C00C6EE257A76EEA77AF7EE006A77EEA67AA6
:10129C0067EE277AC7ED067A00BF114B5B6B5B0AD2
:1012AC0003F07F0301333B603B6807EE903AB8EEE6
:1012BC00677AD7ED066AC6EE877AFCEEE77A17EE08
:1012CC00903AFB6104E00023FB6101E0064BFB61FB
:1012DC00FB6918462437BD465DF8047B704700BF98
:1012EC00000C024400093D000090D00340787D01C1
:1012FC00000000460024744C20BCBE4B0024744AF1
:10130C0080B500AFFFF7D0FE0246084B1B6A03F016
:10131C000F030749CB5C03F01F0322FA03F3054AC2
:10132C001360044B1B68184680BD00BF000C0244C0
:10133C00581800080000002080B485B000AF786019
:10134C007B6803F00703FB600C4BDB68BB60BA687F
:10135C004FF6FF031340BB60FB681A02BB681343D4
:10136C0043F0BF6343F40033BB60044ABB68D360F3
:10137C0000BF1437BD465DF8047B704700ED00E0FC
:10138C0080B400AF044BDB681B0A03F0070318465C
:10139C00BD465DF8047B704700ED00E080B483B07F
:1013AC0000AF03463960FB80B7F90630002B0ADB2F
:1013BC003B68DAB20C49B7F906301201D2B20B44D1
:1013CC0083F800230AE03B68DAB20849FB8803F093
:1013DC000F03043B1201D2B20B441A7600BF0C3738
:1013EC00BD465DF8047B704700E100E000ED00E0D5
:1013FC0080B489B000AFF860B9607A60FB6803F024
:10140C000703FB61FB69C3F10703042B28BF04230B
:10141C00BB61FB690433062B02D9FB69033B00E07B
:10142C0000237B614FF0FF32BB6902FA03F3DA430E
:10143C00BB681A407B699A404FF0FF317B6901FA17
:10144C0003F3D9437B680B40134318462437BD463E
:10145C005DF8047B704780B582B000AF7860786827
:10146C00FFF76AFF00BF0837BD4680BD80B586B068
:10147C0000AF0346B9607A60FB81FFF781FF7861AA
:10148C007A68B9687869FFF7B3FF0246B7F90E308E
:10149C0011461846FFF782FF00BF1837BD4680BDC6
:1014AC0080B483B000AF78607B68013BB3F1807F80
:1014BC0001D301230DE00A4A7B68013B5360084BC2
:1014CC0000229A60064B1B68054A43F00303136025
:1014DC00002318460C37BD465DF8047B704700BFEF
:1014EC0010E000E080B483B000AF78607B68042B20
:1014FC0044D801A252F823F027150008451500081E
:10150C006715000889150008191500081F4B1B6882
:10151C001E4A43F00403136031E01C4B1B681B4A4A
:10152C0023F0040313601A4BD3F8E430184A23F069
:10153C000C03C2F8E43022E0144B1B68134A23F06E
:10154C0004031360124BD3F8E43023F00C03104A5D
:10155C0043F00403C2F8E43011E00C4B1B680B4A57
:10156C0023F0040313600A4BD3F8E43023F00C038C
:10157C00074A43F00803C2F8E43000E000BF00BFA4
:10158C000C37BD465DF8047B704700BF10E000E0EF
:10159C00000C024480B483B000AF174B1B6803F0FF
:1015AC000403002B02D004237B601EE0134BD3F802
:1015BC00E43003F00C033B603B68082B0FD03B6816
:1015CC00082B0FD83B68002B03D03B68042B03D0AF
:1015DC0008E000237B6008E001237B6005E0022328
:1015EC007B6002E000237B6000BF7B6818460C37F1
:1015FC00BD465DF8047B704710E000E0000C02442F
:10160C0080B500AF0320FFF726FFFFF74DFD024624
:10161C000C4B1B6A03F00F030B49CB5C22FA03F350
:10162C000A4A13600420FFF75DFF0F2000F010F84A
:10163C000346002B01D0012302E0FEF7BEFE00237F
:10164C00184680BD000C0244581800080000002009
:10165C0080B584B000AF78600023FB60334B1B78FF
:10166C00002B01D101235CE0314B1B6803F0040318
:10167C00042B0CD12F4B1A682C4B1B7819464FF4AA
:10168C007A73B3FBF1F3B2FBF3F3FB6037E0FFF7D4
:10169C0081FFB860BB68022B23D0BB68022B2DD80E
:1016AC00BB68002B03D0BB68012B0DD026E0214B6F
:1016BC001A681E4B1B7819464FF4FA53B3FBF1F31F
:1016CC00B2FBF3F3FB601AE0184B1B781A464FF48D
:1016DC007A73B3FBF2F34FF4FA42B2FBF3F3FB6011
:1016EC000DE0124B1B781A464FF47A73B3FBF2F3EE
:1016FC004FF40042B2FBF3F3FB6000E000BFF8686C
:10170C00FFF7CEFE0346002B01D0012309E0002297
:10171C0079684FF0FF30FFF7A9FE074A7B6813602A
:10172C00002318461037BD4680BD00BF08000020BE
:10173C0010E000E0000000200400002080B400AFA6
:10174C00064B1B781A46064B1B681344044A13605D
:10175C0000BFBD465DF8047B704700BF0800002049
:10176C002800002080B400AF034B1B681846BD4610
:10177C005DF8047B704700BF28000020DFF83CD0E8
:10178C000F4880F30A88002103E00E4B5B5843504E
:10179C0004310D480D4B42189A42F6D30C4A02E024
:1017AC00002342F8043B0B4B9A42F9D3FEF70CFE94
:1017BC0000F01CF8FEF764FDFEE7000000000A20B4
:1017CC0000FC092070180008000000200C0000200C
:1017DC000C0000202C000020FEE70244034693423C
:1017EC0000D1704703F8011BF9E7000070B50D4BF1
:1017FC0000260D4D5B1B9C10A64209D10B4D00F031
:10180C0019F80B4B00265B1B9C10A64205D170BD32
:10181C0055F8043B01369847EEE755F8043B013682
:10182C009847F2E76818000868180008681800085C
:10183C006C180008F8B500BFF8BC08BC9E46704791
:0C184C00F8B500BFF8BC08BC9E46704711
:101858000000000000000000010203040607080958
:041868007102000801
:04186C004D02000821
:0C1870000090D0031000000001000000F8
:04000005080017894F
:00000001FF
